{
  "_format": "hh-sol-artifact-1",
  "contractName": "BuyMeCoffee",
  "sourceName": "contracts/BuyMeCoffee.sol",
  "abi": [
    {
      "inputs": [],
      "stateMutability": "nonpayable",
      "type": "constructor"
    },
    {
      "anonymous": false,
      "inputs": [
        {
          "indexed": true,
          "internalType": "address",
          "name": "sender",
          "type": "address"
        },
        {
          "indexed": false,
          "internalType": "uint256",
          "name": "amount",
          "type": "uint256"
        },
        {
          "indexed": false,
          "internalType": "string",
          "name": "message",
          "type": "string"
        }
      ],
      "name": "Donation",
      "type": "event"
    },
    {
      "stateMutability": "payable",
      "type": "fallback"
    },
    {
      "inputs": [
        {
          "internalType": "string",
          "name": "_note",
          "type": "string"
        }
      ],
      "name": "donate",
      "outputs": [],
      "stateMutability": "payable",
      "type": "function"
    },
    {
      "inputs": [],
      "name": "getTotalDonation",
      "outputs": [
        {
          "internalType": "uint256",
          "name": "",
          "type": "uint256"
        }
      ],
      "stateMutability": "view",
      "type": "function"
    },
    {
      "stateMutability": "payable",
      "type": "receive"
    }
  ],
  "bytecode": "0x608060405234801561001057600080fd5b50336000806101000a81548173ffffffffffffffffffffffffffffffffffffffff021916908373ffffffffffffffffffffffffffffffffffffffff16021790555061050b806100606000396000f3fe60806040526004361061002d5760003560e01c806356e23eb11461003c578063b5aebc801461006757610037565b3661003757600080fd5b600080fd5b34801561004857600080fd5b50610051610083565b60405161005e91906102fc565b60405180910390f35b610081600480360381019061007c9190610213565b61008d565b005b6000600154905090565b670de0b6b3a76400003410156100d8576040517f08c379a00000000000000000000000000000000000000000000000000000000081526004016100cf906102dc565b60405180910390fd5b34600160008282546100ea91906103c4565b9250508190555060008054906101000a900473ffffffffffffffffffffffffffffffffffffffff1673ffffffffffffffffffffffffffffffffffffffff166108fc349081150290604051600060405180830381858888f19350505050158015610157573d6000803e3d6000fd5b503373ffffffffffffffffffffffffffffffffffffffff167f144b533d556be80bda7c5cb4a1717ed31d063cedea86db1cb5db0fd157bf5d4f34836040516101a0929190610317565b60405180910390a250565b60006101be6101b984610378565b610347565b9050828152602081018484840111156101d657600080fd5b6101e1848285610424565b509392505050565b600082601f8301126101fa57600080fd5b813561020a8482602086016101ab565b91505092915050565b60006020828403121561022557600080fd5b600082013567ffffffffffffffff81111561023f57600080fd5b61024b848285016101e9565b91505092915050565b600061025f826103a8565b61026981856103b3565b9350610279818560208601610433565b610282816104c4565b840191505092915050565b600061029a6018836103b3565b91507f4b696e646c7920646f6e6174652061742031204d4154494300000000000000006000830152602082019050919050565b6102d68161041a565b82525050565b600060208201905081810360008301526102f58161028d565b9050919050565b600060208201905061031160008301846102cd565b92915050565b600060408201905061032c60008301856102cd565b818103602083015261033e8184610254565b90509392505050565b6000604051905081810181811067ffffffffffffffff8211171561036e5761036d610495565b5b8060405250919050565b600067ffffffffffffffff82111561039357610392610495565b5b601f19601f8301169050602081019050919050565b600081519050919050565b600082825260208201905092915050565b60006103cf8261041a565b91506103da8361041a565b9250827fffffffffffffffffffffffffffffffffffffffffffffffffffffffffffffffff0382111561040f5761040e610466565b5b828201905092915050565b6000819050919050565b82818337600083830152505050565b60005b83811015610451578082015181840152602081019050610436565b83811115610460576000848401525b50505050565b7f4e487b7100000000000000000000000000000000000000000000000000000000600052601160045260246000fd5b7f4e487b7100000000000000000000000000000000000000000000000000000000600052604160045260246000fd5b6000601f19601f830116905091905056fea264697066735822122011231d2f4645202402129ac46c032c5d13de710795234c7b89ccc91602e9a7b364736f6c63430008000033",
  "linkReferences": {},
  "deployedLinkReferences": {}
}